:100000000C9481010C949E010C949E010C949E0111
:100010000C949E010C949E010C949E010C949E01E4
:100020000C949E010C949E010C949E010C949E01D4
:100030000C949E010C949E010C949E010C949E01C4
:100040000C949E010C949E010C949E010C949E01B4
:100050000C949E010C949E010C949E010C949E01A4
:100060000C949E010C949E01485454502F312E3014
:100070002034303120556E617574686F72697A650D
:10008000640D0A436F6E74656E742D547970653A11
:1000900020746578742F68746D6C0D0A0D0A3C68C5
:1000A000313E34303120556E617574686F72697AF3
:1000B00065643C2F68313E003C703E557361676556
:1000C0003A20687474703A2F2F686F73745F6F7280
:1000D0005F69702F70617373776F72643C2F703E2D
:1000E0000A00485454502F312E3020323030204FE7
:1000F0004B0D0A436F6E74656E742D547970653ABA
:1001000020746578742F68746D6C0D0A0D0A0048B0
:100110005454502F312E3020323030204F4B0D0AA6
:10012000436F6E74656E742D547970653A207465F2
:1001300078742F68746D6C0D0A0D0A3C68313E327C
:100140003030204F4B3C2F68313E003C2F63656EB2
:100150007465723E3C68723E3C62723E76657273B4
:10016000696F6E20322E31302C2074757867726181
:1001700070686963732E6F72670A002F31223E53D5
:100180007769746368206F6E3C2F613E3C703E005F
:100190002F30223E537769746368206F66663C2F68
:1001A000613E3C703E00203C736D616C6C3E3C6176
:1001B00020687265663D222E223E5B72656672651E
:1001C0007368207374617475735D3C2F613E3C2FBE
:1001D000736D616C6C3E3C2F703E0A3C703E3C611E
:1001E00020687265663D222E004F4646003C666FD1
:1001F0006E7420636F6C6F723D2223303046463040
:1002000030223E204F4E3C2F666F6E743E003C63A2
:10021000656E7465723E3C703E4F757470757420E7
:1002200069733A2000485454502F312E3020323018
:1002300030204F4B0D0A436F6E74656E742D5479E8
:1002400070653A20746578742F68746D6C0D0A506F
:100250007261676D613A206E6F2D63616368650D31
:100260000A0D0A00616464206120747261696C691E
:100270006E6720736C61736820746F2074686520EA
:1002800075726C0A003C68313E333031204D6F7618
:100290006564205065726D616E656E746C793C2F7B
:1002A00068313E0A002F0D0A436F6E74656E742D1F
:1002B000547970653A20746578742F68746D6C0D8C
:1002C0000A507261676D613A206E6F2D63616368D9
:1002D000650D0A0D0A00485454502F312E3020333A
:1002E0003031204D6F766564205065726D616E65AA
:1002F0006E746C790D0A4C6F636174696F6E3A208D
:10030000000011241FBECFEFD4E0DEBFCDBF11E04F
:10031000A0E0B1E0E0E6F2E102C005900D92A83461
:10032000B107D9F713E0A8E4B1E001C01D92AC31E8
:10033000B107E1F70E9426020C942E090C940000EC
:10034000582F282F392FD90105C08E1711F08FEFA4
:1003500008951196EA2FE51BF0E0E25CFE4FE08184
:100360008C91EE2391F78F3211F08DEF0895119655
:100370008C9180538A3008F08EEF089545E050E06C
:10038000BC018EE391E00E94E9089C0180E0232BF0
:1003900009F481E008951F93CF93DF93EC01162FAA
:1003A00045E252E060E070E00E94ED044EE052E071
:1003B000BC01CE010E94ED04BC01112319F04DEEE9
:1003C00051E002C049EE51E0CE010E94ED04BC01B3
:1003D00046EA51E0CE010E94ED04BC01112319F060
:1003E00040E951E002C04BE751E0CE010E94ED042C
:1003F000BC014BE451E0CE010E94ED04DF91CF91AE
:100400001F9108950F931F938C0146ED52E060E019
:1004100070E00E94ED044EE351E0BC01C8010E946F
:10042000000545EA52E0BC01C8010E94ED0445E820
:1004300052E0BC01C8010E94ED0444E652E0BC0158
:10044000C8010E94ED041F910F910895AEE1B0E044
:10045000ECE2F2E00C94020980E8809361001092D3
:10046000610081E090E00E94CA08529884E391E024
:100470000E94070882E00E9422078AE090E00E9422
:10048000CA08219A299A579A5F9866E774E084E12E
:100490000E94050784E190E00E94CA08299840E57F
:1004A0006AE371E084E391E00E94E403DD24D394E5
:1004B0007E010894E11CF11C68E471E082EC91E09B
:1004C0000E9490078C010097B9F3BC0188E491E089
:1004D0000E940A04882329F088E491E00E941B0608
:1004E000EBCFB80188E491E00E942604882321F331
:1004F000DD2019F0299ADD2403C02998DD24D39446
:1005000080915F01813051F480916A018830A1F6B9
:10051000B80188E491E00E94F305CECF863009F05F
:100520007AC080916C01882339F680916D01803505
:1005300019F68091770181FF05C088E491E00E945F
:100540007505BACF84FFB8CF88E491E00E94CA0451
:100550000E94B9048C01009749F48091770180FFD3
:10056000ABCF88E491E00E943C05A6CFBC01685B5C
:100570007E4F44E050E080E091E00E94E90800975F
:1005800019F04FE051E020C0B801645B7E4F42E0BB
:1005900050E085E091E00E94E908009761F442EEA6
:1005A00050E060E070E088E491E00E94ED0448EBE8
:1005B00050E0BC010BC0C801835B9E4F0E94A001AC
:1005C0008F3F49F448E650E060E070E088E491E055
:1005D0000E94ED0415C0813011F45F9A0BC088238E
:1005E00011F45F9807C08D3F29F488E491E00E94E0
:1005F000020206C06BB1607888E491E00E94CB01F2
:100600008C0188E491E00E943C05B80188E491E007
:100610000E94120551CF813109F04ECF80916C01BB
:10062000843009F049CF80916D01803B09F044CFBF
:1006300010916F01185082E791E00E94BE0188235B
:1006400059F438C09F5FE92FF0E0E85BFE4F82A5C8
:100650008C3219F49F5F03C090E0911798F39230A9
:1006600068F0E92FF0E0812F90E00297E817F90792
:100670002CF4E85BFE4F83A58D3319F068E071E040
:100680001BC082A5843799F4E4A5E13311F45F9A85
:1006900008C0E03311F45F9807C0EF3341F45F9B6B
:1006A00003C061E171E008C065E171E005C069E186
:1006B00071E002C067E271E0C7010E94E208F70141
:1006C00001900020E9F73197EE19FF0920EB34E0A3
:1006D0004E2FB70188E491E00E94A405EDCEA0E082
:1006E000B0E0E5E7F3E00C9401096C01413081F4DE
:1006F000685070407B0100E010E0685F7F4F21E1AF
:1007000030E040E050E0E20EF31E041F151F15C05C
:10071000423021F0EE24FF2487010FC06850704062
:100720007B0100E010E0685F7F4F86E090E0A0E092
:10073000B0E0E80EF91E0A1F1B1FF601EB0116C000
:10074000808190E0A0E0B0E0BA2FA92F982F8827F1
:10075000218130E040E050E0822B932BA42BB52B7D
:10076000E80EF91E0A1F1B1F32962297C230D105D0
:1007700038F7FB01EE7FEC0DFD1D60FF15C0808199
:1007800090E0A0E0B0E0BA2FA92F982F882708C0EA
:100790002FEF3FEF40E050E0E222F3220423152345
:1007A000E80EF91E0A1F1B1FC801AA27BB270097C6
:1007B000A105B10569F7970120953095C901CDB71D
:1007C000DEB7E8E00C941D09CF93DF93EC01409372
:1007D000450120E030E0F901EB5EFC4FDB01A20FA8
:1007E000B31F8C9180832F5F3F4F2430310599F7E1
:1007F00020E030E0F901E15FFC4FDE01A20FB31F02
:100800008C9180832F5F3F4F2630310599F7DF9120
:10081000CF910895FC0169327105B0F0848588306C
:1008200099F48585863081F4DF019696E5E1F3E061
:100830009C918081981741F41196319683E0E931BB
:10084000F807B1F781E0089580E00895FC016A326D
:100850007105D0F084858830B9F485858823A1F4AA
:100860008685853489F4DF01E5E1F3E05E969C91AD
:100870005E978081981741F41196319683E0E931B3
:10088000F807A1F781E0089580E00895FC01AFE04A
:10089000B3E0868180838D918683319683E0A53194
:1008A000B807B9F708950F931F938C01FC01108EC0
:1008B000118E80E4848B158A868B40E064E170E0C1
:1008C000C8010E960E946F03F801908F818F1F91CF
:1008D0000F910895AC01FC01A5E1B3E0828D868FF4
:1008E0008D91828F319683E0A931B807B9F7CA019B
:1008F0000E9453040895FC0182A184A312A283A143
:1009000085A313A28091450183A3DF01999694E00A
:100910008C91680F711D14968C91149714966C939A
:100920001497222311F08C9301C01C9291501197BF
:10093000992319F0672F7727EBCF222349F416A2CA
:1009400017A28091460180A711A68E5F8093460171
:1009500012AA13AA442351F082E086AB84E087AB4D
:1009600085E080AF80E881AF80E601C080E586A7A2
:10097000089580910B0390910C03892B19F420E0CA
:1009800030E006C020910D0330910E032E5D3F4FE5
:10099000C9010895FC01908980E0218930E0282B6D
:1009A000392B86A582958F7090E0880F991F880F4C
:1009B000991F90930E0380930D0324513040281B00
:1009C000390B30930C0320930B031216130624F0FB
:1009D00010920C0310920B0308956A5C7F4FDC01A8
:1009E000A60FB71F6653704003C08D936F5F7F4F94
:1009F000FA014F5F5F4F84918823B9F7CB010895C7
:100A0000FA016A5C7F4FDC01A60FB71F6653704086
:100A100004C08D936F5F7F4F319680818823C9F723
:100A2000CB010895EF92FF920F931F938C017B01EE
:100A300089E1F80187A7CB018896908B818BC8014B
:100A40000E945304F80112AA13AA8CE190E0E80E68
:100A5000F91E42E0B701C8014A960E946F03F801EF
:100A600092AB83ABB801C7014A960E9435071F912C
:100A70000F91FF90EF900895CF93DF93EC01FC016D
:100A8000AFE0B3E0868180838D918683319683E0E9
:100A9000A531B807B9F780E18FA760910B0370917A
:100AA0000C036115710529F421E040E061E070E07C
:100AB00002C021E040E0CE010E947B04188A88E257
:100AC000898BCE010E946A0442E06CE170E0CE01A5
:100AD0004A960E946F039AAB8BABBE0186E390E00F
:100AE0000E943507DF91CF910895CF93DF93EC01FA
:100AF000FC01AFE0B3E0868180838D9186833196DF
:100B000083E0A531B807B9F7188A8CE2898BCE014A
:100B10000E946A0482E18FA720E041E061E070E07A
:100B2000CE010E947B0442E060E270E0CE014A9672
:100B30000E946F039AAB8BABBE018AE390E00E94E8
:100B40003507DF91CF910895A0E0B0E0EAEAF5E043
:100B50000C940209EC017B01D22E132FFC01AFE0B3
:100B6000B3E0868180838D918683319683E0A531C1
:100B7000B807B9F7042F4D3D08F00CED188A045E54
:100B8000098BCE010E946A048AA18CA38BA18DA33C
:100B90001AA3DBA21EA204510FA3085018A619A67F
:100BA000DE019A9620E030E007C0F701E20FF31F64
:100BB00080818D932F5F3F4F2017B8F310E0005FC7
:100BC0001F4F41E0B801CE014A960E946F0398A7DB
:100BD00089A7BE01C8014A960E943507CDB7DEB786
:100BE000E7E00C941E090F931F93CF93DF93EC0162
:100BF0008B01FC01AFE0B3E0868180838D91868319
:100C0000319683E0A531B807B9F7CE010E946A0496
:100C10001AA28CA1883F18F08DA18F5F8DA38CA1A3
:100C2000885F8CA3BE01C8010E943507DF91CF9178
:100C30001F910F910895CF93DF93AC01EC012FE04A
:100C400033E0FC01D901868180838D9186833196C2
:100C500083E0A531B807B9F7FA01148A82E0858BE1
:100C60008E8988A3F90181919F018E8B2196F3E0F3
:100C700025313F07A9F7FA017C96A5E1B3E0808111
:100C800082878D91819383E0A931B807C1F7BA01BA
:100C90008AE290E00E943507DF91CF9108952A986B
:100CA000962F9F71982B9EBD0DB407FEFDCF1EBCE5
:100CB0000DB407FEFDCF67FF04C01EBC0DB407FED8
:100CC000FDCF2A9A8EB508952A986F71682B6EBD54
:100CD0000DB407FEFDCF4EBD0DB407FEFDCF2A9A21
:100CE0000895AC01FB012A988AE38EBD0DB407FE7E
:100CF000FDCF9A01DF0108C01EBC0DB407FEFDCF79
:100D0000215030408EB58D9321153105A9F7E40FA0
:100D1000F51F10822A9A08959C01FB012A988AE700
:100D20008EBD0DB407FEFDCF08C080818EBD0DB411
:100D300007FEFDCF21503040319621153105A9F72E
:100D40002A9A0895482F282F30E02076307080911D
:100D5000190390E028173907F9F02A988FEB8EBD18
:100D60000DB407FEFDCF83E08EBD0DB407FEFDCFB1
:100D70002A9A2A988FE98EBD0DB407FEFDCF85E033
:100D8000359527958A95E1F72EBD0DB407FEFDCF69
:100D90002A9A40764093190308951F93182F0E94B2
:100DA000A206612F80E00E944F061F9108950F93C5
:100DB0001F93182F062F0E94A2062A981F711064F5
:100DC0001EBD0DB407FEFDCF0EBD0DB407FEFDCF59
:100DD0002A9A1F910F910895682F84ED0E94D706DB
:100DE00061E082ED0E94D7068EE38A95F1F78AEEE4
:100DF0000E94CD0680FDFBCF60E082ED0E94D70609
:100E000089ED0E94CD0690E008950F931F93162F51
:100E1000072F682F84ED0E94D706612F86ED0E9470
:100E2000D706602F87ED0E94D7061EE303C0812FEF
:100E30008A95F1F78AEE0E94CD0680FDF8CF1F91CA
:100E40000F9108958770682F85E70E94D70608954F
:100E500082E70E94CD06089581E10E94EC0620E021
:100E6000892B09F021E0822F08950F931F93CF93D0
:100E7000DF93EC018B016FEF82E00E94D70669E1FE
:100E800083E00E94D706CE018150682F86E00E9441
:100E9000D706CE018150964E692F87E00E94D70673
:100EA0002A988AE78EBD0DB407FEFDCF1EBC0DB497
:100EB00007FEFDCF2A9A2A988AE78EBD0DB407FE59
:100EC000FDCF09C0F80180818EBD0DB407FEFDCFB6
:100ED00021970F5F1F4F2097A9F72A9A2A988FE929
:100EE0008EBD0DB407FEFDCF88E08EBD0DB407FEAC
:100EF000FDCF2A9A8CE10E94CD0681FF0CC02A9872
:100F00008FEB8EBD0DB407FEFDCF88E08EBD0DB416
:100F100007FEFDCF2A9ADF91CF911F910F9108957F
:100F2000A0E0B0E0E6E9F7E00C94FF086C015B019B
:100F300089E30E94CD06882319F400E010E061C027
:100F400060911A0310911B0380E00E94D706612F65
:100F500081E00E94D70660E08AE30E944F06182FC6
:100F600060E08AE30E944F06382F20E0C12FD0E0D6
:100F7000C22BD32BD0931B03C0931A0360E08AE3E8
:100F80000E944F06E82E60E08AE30E944F06F82E8A
:100F900060E08AE30E944F06082F10E060E08AE3D9
:100FA0000E944F06382F20E0202B312B27FD03C055
:100FB00000E010E012C00E2D10E09F2D80E0082B05
:100FC000192BC6010197045010408017910708F4AF
:100FD0008C01B501C8010E9471066C2F8CE00E9443
:100FE000D7066D2F8DE00E94D7062A988EE98EBD18
:100FF0000DB407FEFDCF80E48EBD0DB407FEFDCF1E
:101000002A9AC801CDB7DEB7EAE00C941B09CF934A
:10101000DF93EC01229A2A9A84B1886284B92498D9
:101020002B982D9880E58CBD8DB581608DBD2A985B
:101030008FEF8EBD0DB407FEFDCF8FEF8EBD0DB4CB
:1010400007FEFDCF2A9A82E390E00E94CA08109220
:101050001B0310921A0360E088E00E94D70660E04C
:1010600089E00E94D70660E08CE00E94D70660E02D
:101070008DE00E94D7066EEF8AE00E94D70669E1F4
:101080008BE00E94D7066FEF84E00E94D70669E1EB
:1010900085E00E94D7066FEF86E00E94D7066FE1D9
:1010A00087E00E94D70660EB88E30E94D7066FE3D3
:1010B00088E20E94D70660E389E20E94D70669EFC2
:1010C00080E30E94D70667EF81E30E94D7066DE0B8
:1010D00080EC0E94D70660E081EC0E94D7062A9837
:1010E00082E88EBD0DB407FEFDCF82E38EBD0DB448
:1010F00007FEFDCF2A9A62E186EC0E94D7066CE0DB
:1011000087EC0E94D70662E184EC0E94D7066CED62
:101110008AEC0E94D70665E08BEC0E94D7066881B6
:1011200084EE0E94D706698185EE0E94D7066A8107
:1011300082EE0E94D7066B8183EE0E94D7066C81F7
:1011400080EE0E94D7066D8181EE0E94D70660E096
:1011500071E080E10E9405078FE10E94A2062A98B3
:101160008BE98EBD0DB407FEFDCF80EC8EBD0DB4B6
:1011700007FEFDCF2A9A2A988FE98EBD0DB407FE8F
:10118000FDCF84E08EBD0DB407FEFDCF2A9ADF911E
:10119000CF91089528EB3BE004C0F9013197F1F7B6
:1011A00001970097D1F708952FE088E190E00FB6FE
:1011B000F894A895809360000FBE20936000089576
:1011C000A8950895FB01DC0101900D920020E1F744
:1011D0000895FB01DC014150504030F08D910190A9
:1011E000801919F40020B9F7881B990B08952F92E4
:1011F0003F924F925F926F927F928F929F92AF92A7
:10120000BF92CF92DF92EF92FF920F931F93CF93F3
:10121000DF93CDB7DEB7CA1BDB0B0FB6F894DEBF8A
:101220000FBECDBF09942A88398848885F846E84B0
:101230007D848C849B84AA84B984C884DF80EE80FA
:10124000FD800C811B81AA81B981CE0FD11D0FB603
:10125000F894DEBF0FBECDBFED010895F894FFCF27
:1012600047455420002F2000653D6E6F5F636D641D
:1012700000743D3100743D3000653D6E6F5F7375E5
:1012800063685F636D6400653D696E76616C696477
:101290005F707700545558100024C0A8011873657A
:0812A0006372657400500A003E
:00000001FF
