:100000000C9434000C9451000C9451000C94510049
:100010000C9451000C9451000C9451000C9451001C
:100020000C9451000C9451000C9451000C9451000C
:100030000C9451000C9451000C9451000C945100FC
:100040000C9451000C9451000C9451000C945100EC
:100050000C9451000C9451000C9451000C945100DC
:100060000C9451000C94510011241FBECFEFD4E02A
:10007000DEBFCDBF11E0A0E0B1E0E0EFF0E002C0F4
:1000800005900D92A030B107D9F711E0A0E0B1E0E2
:1000900001C01D92A030B107E1F70E945D000C94F1
:1000A00076000C9400002CED35E004C0F901319786
:1000B000F1F701970097D1F7089580E880936100E8
:1000C00010926100219A2CED35E0299884EF91E09F
:1000D000F9013197F1F70197D9F7299A84EF91E067
:1000E000F9013197F1F70197D9F7EFCFF894FFCFE6
:00000001FF
