:100000000C9472000C948F000C948F000C948F0051
:100010000C948F000C948F000C948F000C948F0024
:100020000C948F000C948F000C948F000C948F0014
:100030000C948F000C948F000C948F000C948F0004
:100040000C948F000C948F000C948F000C948F00F4
:100050000C948F000C948F000C948F000C948F00E4
:100060000C948F000C948F00485454502F312E3034
:1000700020323030204F4B0D0A436F6E74656E7422
:100080002D547970653A20746578742F68746D6C9E
:100090000D0A0D0A3C703E4F4B2C20697420776F7F
:1000A000726B733C2F703E00485454502F312E30E9
:1000B00020323030204F4B0D0A436F6E74656E74E2
:1000C0002D547970653A20746578742F68746D6C5E
:1000D0000D0A0D0A3C68313E323030204F4B3C2F28
:1000E00068313E0011241FBECFEFD4E0DEBFCDBF8C
:1000F00011E0A0E0B1E0ECE0FEE002C005900D925E
:10010000A831B107D9F712E0A8E1B1E001C01D9212
:10011000A838B107E1F70E9491000C9404070C94F1
:1001200000001F93CF93DF9380E8809361001092CB
:10013000610084E190E00E94C703219A299A8BE034
:1001400091E00E94040382E00E941F028AE090E096
:100150000E94C70366E774E084E10E94020284E122
:1001600090E00E94C703299840E561E171E08BE0CF
:1001700091E00E94540411E068E171E08EE591E0A5
:100180000E948D02EC010097B9F3BC0188E191E077
:100190000E947A04882329F088E191E00E948B066E
:1001A000EBCFBE0188E191E00E949604882321F301
:1001B000112319F0299A10E002C0299811E08091CA
:1001C0002F01813051F480913A018830A9F6BE01A7
:1001D00088E191E00E946306CFCF863009F045C0E8
:1001E00080913C01882341F680913D01803521F6C4
:1001F0008091470181FF05C088E191E00E94E505FB
:10020000BBCF84FFB9CF88E191E00E943A050E94FC
:100210002905BC01009749F48091470180FFACCFCC
:1002200088E191E00E94AC05A7CF685E7E4F44E074
:1002300050E080E091E00E94BF06009719F048EA84
:1002400050E002C048E650E060E070E088E191E0F4
:100250000E945D05EC0188E191E00E94AC05BE01C1
:1002600088E191E00E94820587CF813109F084CF37
:1002700090913F0180914201843709F07DCF9D30FC
:1002800009F07ACF20EB34E046E065E071E088E1E8
:1002900091E00E94140670CF2A98962F9F71982B98
:1002A0009EBD0DB407FEFDCF1EBC0DB407FEFDCFF5
:1002B00067FF04C01EBC0DB407FEFDCF2A9A8EB5A1
:1002C00008952A986F71682B6EBD0DB407FEFDCF9F
:1002D0004EBD0DB407FEFDCF2A9A0895AC01FB0177
:1002E0002A988AE38EBD0DB407FEFDCF9A01DF0187
:1002F00008C01EBC0DB407FEFDCF215030408EB5A6
:100300008D9321153105A9F7E40FF51F10822A9A64
:1003100008959C01FB012A988AE78EBD0DB407FE63
:10032000FDCF08C080818EBD0DB407FEFDCF2150EA
:100330003040319621153105A9F72A9A0895482FA2
:10034000282F30E0207630708091770290E02817D7
:100350003907F9F02A988FEB8EBD0DB407FEFDCF5B
:1003600083E08EBD0DB407FEFDCF2A9A2A988FE94F
:100370008EBD0DB407FEFDCF85E0359527958A9596
:10038000E1F72EBD0DB407FEFDCF2A9A40764093CB
:10039000770208951F93182F0E949F01612F80E01C
:1003A0000E944C011F9108950F931F93182F062F41
:1003B0000E949F012A981F7110641EBD0DB407FE94
:1003C000FDCF0EBD0DB407FEFDCF2A9A1F910F91F0
:1003D0000895682F84ED0E94D40161E082ED0E94AF
:1003E000D4018EE38A95F1F78AEE0E94CA0180FD5E
:1003F000FBCF60E082ED0E94D40189ED0E94CA012A
:1004000090E008950F931F93162F072F682F84ED08
:100410000E94D401612F86ED0E94D401602F87EDE8
:100420000E94D4011EE303C0812F8A95F1F78AEE62
:100430000E94CA0180FDF8CF1F910F910895877027
:10044000682F85E70E94D401089582E70E94CA01BF
:10045000089581E10E94E90120E0892B09F021E063
:10046000822F08950F931F93CF93DF93EC018B019D
:100470006FEF82E00E94D40169E183E00E94D40121
:10048000CE018150682F86E00E94D401CE018150B8
:10049000964E692F87E00E94D4012A988AE78EBD84
:1004A0000DB407FEFDCF1EBC0DB407FEFDCF2A9A8A
:1004B0002A988AE78EBD0DB407FEFDCF09C0F8016A
:1004C00080818EBD0DB407FEFDCF21970F5F1F4FBA
:1004D0002097A9F72A9A2A988FE98EBD0DB407FEB6
:1004E000FDCF88E08EBD0DB407FEFDCF2A9A8CE1CA
:1004F0000E94CA0181FF0CC02A988FEB8EBD0DB4FB
:1005000007FEFDCF88E08EBD0DB407FEFDCF2A9A11
:10051000DF91CF911F910F910895A0E0B0E0E3E942
:10052000F2E00C94D5066C015B0189E30E94CA01DC
:10053000882319F400E010E061C060917802109106
:10054000790280E00E94D401612F81E00E94D401F1
:1005500060E08AE30E944C01182F60E08AE30E9469
:100560004C01382F20E0C12FD0E0C22BD32BD093E9
:100570007902C093780260E08AE30E944C01E82E81
:1005800060E08AE30E944C01F82E60E08AE30E945A
:100590004C01082F10E060E08AE30E944C01382FE4
:1005A00020E0202B312B27FD03C000E010E012C01B
:1005B0000E2D10E09F2D80E0082B192BC60101970E
:1005C000045010408017910708F48C01B501C80150
:1005D0000E946E016C2F8CE00E94D4016D2F8DE083
:1005E0000E94D4012A988EE98EBD0DB407FEFDCF7E
:1005F00080E48EBD0DB407FEFDCF2A9AC801CDB7A9
:10060000DEB7EAE00C94F106CF93DF93EC01229A77
:100610002A9A84B1886284B924982B982D9880E511
:100620008CBD8DB581608DBD2A988FEF8EBD0DB4C8
:1006300007FEFDCF8FEF8EBD0DB407FEFDCF2A9ACA
:1006400082E390E00E94C703109279021092780230
:1006500060E088E00E94D40160E089E00E94D4015B
:1006600060E08CE00E94D40160E08DE00E94D40143
:100670006EEF8AE00E94D40169E18BE00E94D40110
:100680006FEF84E00E94D40169E185E00E94D4010B
:100690006FEF86E00E94D4016FE187E00E94D401F1
:1006A00060EB88E30E94D4016FE388E20E94D401EA
:1006B00060E389E20E94D40169EF80E30E94D401E3
:1006C00067EF81E30E94D4016DE080EC0E94D401C9
:1006D00060E081EC0E94D4012A9882E88EBD0DB4BE
:1006E00007FEFDCF82E38EBD0DB407FEFDCF2A9A33
:1006F00062E186EC0E94D4016CE087EC0E94D40198
:1007000062E184EC0E94D4016CED8AEC0E94D40179
:1007100065E08BEC0E94D401688184EE0E94D401D4
:10072000698185EE0E94D4016A8182EE0E94D40123
:100730006B8183EE0E94D4016C8180EE0E94D40113
:100740006D8181EE0E94D40160E071E080E10E9441
:1007500002028FE10E949F012A988BE98EBD0DB4A1
:1007600007FEFDCF80EC8EBD0DB407FEFDCF2A9AAB
:100770002A988FE98EBD0DB407FEFDCF84E08EBDB3
:100780000DB407FEFDCF2A9ADF91CF91089528EB93
:100790003BE004C0F9013197F1F701970097D1F7D9
:1007A00008952FE088E190E00FB6F894A895809323
:1007B00060000FBE209360000895A8950895A0E002
:1007C000B0E0E5EEF3E00C94D7066C01413081F423
:1007D000685070407B0100E010E0685F7F4F21E1CE
:1007E00030E040E050E0E20EF31E041F151F15C07C
:1007F000423021F0EE24FF2487010FC06850704082
:100800007B0100E010E0685F7F4F86E090E0A0E0B1
:10081000B0E0E80EF91E0A1F1B1FF601EB0116C01F
:10082000808190E0A0E0B0E0BA2FA92F982F882710
:10083000218130E040E050E0822B932BA42BB52B9C
:10084000E80EF91E0A1F1B1F32962297C230D105EF
:1008500038F7FB01EE7FEC0DFD1D60FF15C08081B8
:1008600090E0A0E0B0E0BA2FA92F982F882708C009
:100870002FEF3FEF40E050E0E222F3220423152364
:10088000E80EF91E0A1F1B1FC801AA27BB270097E5
:10089000A105B10569F7970120953095C901CDB73C
:1008A000DEB7E8E00C94F306CF93DF93EC014093BE
:1008B000150120E030E0F901EC57FD4FDB01A20FFC
:1008C000B31F8C9180832F5F3F4F2430310599F700
:1008D00020E030E0F901E258FD4FDE01A20FB31F26
:1008E0008C9180832F5F3F4F2630310599F7DF9140
:1008F000CF910895FC0169327105B0F0848588308C
:1009000099F48585863081F4DF019696E4E8F2E07B
:100910009C918081981741F41196319682E0E838D5
:10092000F807B1F781E0089580E00895FC016A328C
:100930007105D0F084858830B9F485858823A1F4C9
:100940008685853489F4DF01E4E8F2E05E969C91C7
:100950005E978081981741F41196319682E0E838CD
:10096000F807A1F781E0089580E00895FC01AEE763
:10097000B2E0868180838D918683319682E0A438AF
:10098000B807B9F708950F931F938C01FC01108EDF
:10099000118E80E4848B158A868B40E064E170E0E0
:1009A000C8010E960E94DF03F801908F818F1F917E
:1009B0000F910895AC01FC01A4E8B2E0828D868F0E
:1009C0008D91828F319682E0A838B807B9F7CA01B5
:1009D0000E94C3040895FC0182A184A312A283A1F2
:1009E00085A313A28091150183A3DF01999694E05A
:1009F0008C91680F711D14968C91149714966C93BA
:100A00001497222311F08C9301C01C9291501197DE
:100A1000992319F0672F7727EBCF222349F416A2E9
:100A200017A28091160180A711A68E5F80931601F0
:100A300012AA13AA442351F082E086AB84E087AB6C
:100A400085E080AF80E881AF80E601C080E586A7C1
:100A5000089580917A0290917B02892B19F420E00D
:100A600030E006C020917C0230917D022E5D3F4F28
:100A7000C9010895FC01908980E0218930E0282B8C
:100A8000392B86A582958F7090E0880F991F880F6B
:100A9000991F90937D0280937C0224513040281B43
:100AA000390B30937B0220937A021216130624F03E
:100AB00010927B0210927A0208956A5C7F4FDC01EB
:100AC000A60FB71F6653704003C08D936F5F7F4FB3
:100AD000FA014F5F5F4F84918823B9F7CB010895E6
:100AE000FA016A5C7F4FDC01A60FB71F66537040A6
:100AF00004C08D936F5F7F4F319680818823C9F743
:100B0000CB010895EF92FF920F931F938C017B010D
:100B100089E1F80187A7CB018896908B818BC8016A
:100B20000E94C304F80112AA13AA8CE190E0E80E17
:100B3000F91E42E0B701C8014A960E94DF03F8019E
:100B400092AB83ABB801C7014A960E9432021F9153
:100B50000F91FF90EF900895CF93DF93EC01FC018C
:100B6000AEE7B2E0868180838D918683319682E004
:100B7000A438B807B9F780E18FA760917A02709125
:100B80007B026115710529F421E040E061E070E02D
:100B900002C021E040E0CE010E94EB04188A88E206
:100BA000898BCE010E94DA0442E06CE170E0CE0154
:100BB0004A960E94DF039AAB8BABBE0186E390E0BE
:100BC0000E943202DF91CF910895CF93DF93EC0121
:100BD000FC01AEE7B2E0868180838D9186833196F9
:100BE00082E0A438B807B9F7188A8CE2898BCE0165
:100BF0000E94DA0482E18FA720E041E061E070E02A
:100C0000CE010E94EB0442E060E270E0CE014A9621
:100C10000E94DF039AAB8BABBE018AE390E00E9497
:100C20003202DF91CF910895A0E0B0E0EAE1F6E072
:100C30000C94D806EC017B01D22E132FFC01AEE7F9
:100C4000B2E0868180838D918683319682E0A438DC
:100C5000B807B9F7042F4D3D08F00CED188A045E73
:100C6000098BCE010E94DA048AA18CA38BA18DA3EB
:100C70001AA3DBA21EA204510FA3085018A619A69E
:100C8000DE019A9620E030E007C0F701E20FF31F83
:100C900080818D932F5F3F4F2017B8F310E0005FE6
:100CA0001F4F41E0B801CE014A960E94DF0398A78A
:100CB00089A7BE01C8014A960E943202CDB7DEB7AD
:100CC000E7E00C94F4060F931F93CF93DF93EC01AE
:100CD0008B01FC01AEE7B2E0868180838D91868333
:100CE000319682E0A438B807B9F7CE010E94DA0441
:100CF0001AA28CA1883F18F08DA18F5F8DA38CA1C3
:100D0000885F8CA3BE01C8010E943202DF91CF919F
:100D10001F910F910895CF93DF93AC01EC012EE763
:100D200032E0FC01D901868180838D9186833196E2
:100D300082E0A438B807B9F7FA01148A82E0858BFB
:100D40008E8988A3F90181919F018E8B2196F2E013
:100D500024383F07A9F7FA017C96A4E8B2E0808125
:100D600082878D91819382E0A838B807C1F7BA01D4
:100D70008AE290E00E943202DF91CF910895FB0158
:100D8000DC014150504030F08D910190801919F4F0
:100D90000020B9F7881B990B08952F923F924F922C
:100DA0005F926F927F928F929F92AF92BF92CF92FB
:100DB000DF92EF92FF920F931F93CF93DF93CDB704
:100DC000DEB7CA1BDB0B0FB6F894DEBF0FBECDBF7C
:100DD00009942A88398848885F846E847D848C844D
:100DE0009B84AA84B984C884DF80EE80FD800C8156
:100DF0001B81AA81B981CE0FD11D0FB6F894DEBF39
:0C0E00000FBECDBFED010895F894FFCFA8
:100E0C00474554200068656C6C6F005455581000B1
:080E1C00240A000018500A002E
:00000001FF
