:100000000C9434000C9451000C9451000C94510049
:100010000C9451000C9451000C9451000C9451001C
:100020000C9451000C9451000C9451000C9451000C
:100030000C9451000C9451000C9451000C945100FC
:100040000C9451000C9451000C9451000C945100EC
:100050000C9451000C9451000C9451000C945100DC
:100060000C9451000C94510011241FBECFEFD4E02A
:10007000DEBFCDBF11E0A0E0B1E0ECEFFCE002C0DC
:1000800005900D92AC30B107D9F712E0ACE0B1E0C9
:1000900001C01D92A831B107E1F70E9453000C94F2
:1000A0007C060C9400001F93CF93DF9380E880932D
:1000B00061001092610084E190E00E944D03219A5A
:1000C000299A80E091E00E948A0282E00E94A501C4
:1000D0008AE090E00E944D0360E878E084E10E94AD
:1000E000880184EF91E00E944D0360E979E084E1AA
:1000F0000E94880184EF91E00E944D0360E878E05F
:1001000084E10E94880184EF91E00E944D0360E940
:1001100079E084E10E94880184EF91E00E944D0320
:1001200066E774E084E10E94880184E690E00E9422
:100130004D0340E566E071E080E091E00E94DA0363
:1001400010E06CE071E08AEF90E00E941302EC0195
:100150000097B9F3BC018CE091E00E940004882371
:1001600029F08CE091E00E941106EBCFBE018CE0FB
:1001700091E00E941C04882321F3112319F0299A8D
:1001800010E002C0299811E0809123018130C9F666
:1001900080912E018830A9F6BE018CE091E00E948A
:1001A000E905CFCF2A98962F9F71982B9EBD0DB44D
:1001B00007FEFDCF1EBC0DB407FEFDCF67FF04C0D8
:1001C0001EBC0DB407FEFDCF2A9A8EB508952A985D
:1001D0006F71682B6EBD0DB407FEFDCF4EBD0DB423
:1001E00007FEFDCF2A9A0895AC01FB012A988AE305
:1001F0008EBD0DB407FEFDCF9A01DF0108C01EBC05
:100200000DB407FEFDCF215030408EB58D932115E2
:100210003105A9F7E40FF51F10822A9A08959C0171
:10022000FB012A988AE78EBD0DB407FEFDCF08C0FA
:1002300080818EBD0DB407FEFDCF21503040319638
:1002400021153105A9F72A9A0895482F282F30E063
:10025000207630708091070290E028173907F9F076
:100260002A988FEB8EBD0DB407FEFDCF83E08EBDC7
:100270000DB407FEFDCF2A9A2A988FE98EBD0DB4E2
:1002800007FEFDCF85E0359527958A95E1F72EBDD0
:100290000DB407FEFDCF2A9A4076409307020895D9
:1002A0001F93182F0E942501612F80E00E94D20029
:1002B0001F9108950F931F93182F062F0E94250159
:1002C0002A981F7110641EBD0DB407FEFDCF0EBD30
:1002D0000DB407FEFDCF2A9A1F910F910895682F44
:1002E00084ED0E945A0161E082ED0E945A018EE382
:1002F0008A95F1F78AEE0E94500180FDFBCF60E005
:1003000082ED0E945A0189ED0E94500190E008950B
:100310000F931F93162F072F682F84ED0E945A0109
:10032000612F86ED0E945A01602F87ED0E945A01CD
:100330001EE303C0812F8A95F1F78AEE0E945001D7
:1003400080FDF8CF1F910F9108958770682F85E782
:100350000E945A01089582E70E945001089581E1A8
:100360000E946F0120E0892B09F021E0822F08957F
:100370000F931F93CF93DF93EC018B016FEF82E01C
:100380000E945A0169E183E00E945A01CE01815026
:10039000682F86E00E945A01CE018150964E692F47
:1003A00087E00E945A012A988AE78EBD0DB407FEA5
:1003B000FDCF1EBC0DB407FEFDCF2A9A2A988AE70E
:1003C0008EBD0DB407FEFDCF09C0F80180818EBD42
:1003D0000DB407FEFDCF21970F5F1F4F2097A9F7A0
:1003E0002A9A2A988FE98EBD0DB407FEFDCF88E0CA
:1003F0008EBD0DB407FEFDCF2A9A8CE10E945001FC
:1004000081FF0CC02A988FEB8EBD0DB407FEFDCF87
:1004100088E08EBD0DB407FEFDCF2A9ADF91CF9103
:100420001F910F910895A0E0B0E0E9E1F2E00C9493
:100430004D066C015B0189E30E945001882319F489
:1004400000E010E061C0609108021091090280E0B4
:100450000E945A01612F81E00E945A0160E08AE304
:100460000E94D200182F60E08AE30E94D200382F49
:1004700020E0C12FD0E0C22BD32BD0930902C09330
:10048000080260E08AE30E94D200E82E60E08AE37E
:100490000E94D200F82E60E08AE30E94D200082F6A
:1004A00010E060E08AE30E94D200382F20E0202B89
:1004B000312B27FD03C000E010E012C00E2D10E02C
:1004C0009F2D80E0082B192BC60101970450104086
:1004D0008017910708F48C01B501C8010E94F4004F
:1004E0006C2F8CE00E945A016D2F8DE00E945A0102
:1004F0002A988EE98EBD0DB407FEFDCF80E48EBD37
:100500000DB407FEFDCF2A9AC801CDB7DEB7EAE0E9
:100510000C946906CF93DF93EC01229A2A9A84B156
:10052000886284B924982B982D9880E58CBD8DB570
:1005300081608DBD2A988FEF8EBD0DB407FEFDCF73
:100540008FEF8EBD0DB407FEFDCF2A9A82E390E0B7
:100550000E944D03109209021092080260E088E0A8
:100560000E945A0160E089E00E945A0160E08CE03C
:100570000E945A0160E08DE00E945A016EEF8AE00D
:100580000E945A0169E18BE00E945A016FEF84E0FA
:100590000E945A0169E185E00E945A016FEF86E0EE
:1005A0000E945A016FE187E00E945A0160EB88E3E4
:1005B0000E945A016FE388E20E945A0160E389E2D7
:1005C0000E945A0169EF80E30E945A0167EF81E3BC
:1005D0000E945A016DE080EC0E945A0160E081ECBB
:1005E0000E945A012A9882E88EBD0DB407FEFDCF05
:1005F00082E38EBD0DB407FEFDCF2A9A62E186EC40
:100600000E945A016CE087EC0E945A0162E184EC7E
:100610000E945A016CED8AEC0E945A0165E08BEC55
:100620000E945A01688184EE0E945A01698185EE18
:100630000E945A016A8182EE0E945A016B8183EE08
:100640000E945A016C8180EE0E945A016D8181EEF8
:100650000E945A0160E071E080E10E9488018FE110
:100660000E9425012A988BE98EBD0DB407FEFDCFAF
:1006700080EC8EBD0DB407FEFDCF2A9A2A988FE933
:100680008EBD0DB407FEFDCF84E08EBD0DB407FE18
:10069000FDCF2A9ADF91CF91089528EB3BE004C06B
:1006A000F9013197F1F701970097D1F708952FE0FD
:1006B00088E190E00FB6F894A895809360000FBE93
:1006C000209360000895A8950895A0E0B0E0EBE6BF
:1006D000F3E00C944F066C01413081F46850704097
:1006E0007B0100E010E0685F7F4F21E130E040E0F7
:1006F00050E0E20EF31E041F151F15C0423021F01A
:10070000EE24FF2487010FC0685070407B0100E099
:1007100010E0685F7F4F86E090E0A0E0B0E0E80E78
:10072000F91E0A1F1B1FF601EB0116C0808190E025
:10073000A0E0B0E0BA2FA92F982F8827218130E0C0
:1007400040E050E0822B932BA42BB52BE80EF91E32
:100750000A1F1B1F32962297C230D10538F7FB01C2
:10076000EE7FEC0DFD1D60FF15C0808190E0A0E0E4
:10077000B0E0BA2FA92F982F882708C02FEF3FEF9E
:1007800040E050E0E222F32204231523E80EF91E94
:100790000A1F1B1FC801AA27BB270097A105B10587
:1007A00069F7970120953095C901CDB7DEB7E8E02C
:1007B0000C946B06CF93DF93EC0140930A0120E089
:1007C00030E0F901EC5EFD4FDB01A20FB31F8C910D
:1007D00080832F5F3F4F2430310599F720E030E0D0
:1007E000F901E25FFD4FDE01A20FB31F8C91808300
:1007F0002F5F3F4F2630310599F7DF91CF91089554
:10080000FC0169327105B0F08485883099F48585E2
:10081000863081F4DF019696E4E1F2E09C918081DC
:10082000981741F41196319682E0E831F807B1F754
:1008300081E0089580E00895FC016A327105D0F0EE
:1008400084858830B9F485858823A1F4868585342C
:1008500089F4DF01E4E1F2E05E969C915E9780818D
:10086000981741F41196319682E0E831F807A1F724
:1008700081E0089580E00895FC01AEE0B2E0868159
:1008800080838D918683319682E0A431B807B9F7D1
:1008900008950F931F938C01FC01108E118E80E43C
:1008A000848B158A868B40E064E170E0C8010E9667
:1008B0000E946503F801908F818F1F910F91089519
:1008C000AC01FC01A4E1B2E0828D868F8D91828F14
:1008D000319682E0A831B807B9F7CA010E944904ED
:1008E0000895FC0182A184A312A283A185A313A26F
:1008F00080910A0183A3DF01999694E08C91680F9F
:10090000711D14968C91149714966C93149722234E
:1009100011F08C9301C01C9291501197992319F0FA
:10092000672F7727EBCF222349F416A217A28091D5
:100930000B0180A711A68E5F80930B0112AA13AA48
:10094000442351F082E086AB84E087AB85E080AF42
:1009500080E881AF80E601C080E586A70895809198
:100960000A0290910B02892B19F420E030E006C0B6
:1009700020910C0230910D022E5D3F4FC901089568
:10098000FC01908980E0218930E0282B392B86A555
:1009900082958F7090E0880F991F880F991F909310
:1009A0000D0280930C0224513040281B390B3093E8
:1009B0000B0220930A021216130624F010920B0267
:1009C00010920A0208956A5C7F4FDC01A60FB71FE0
:1009D0006653704003C08D936F5F7F4FFA014F5F86
:1009E0005F4F84918823B9F7CB010895FA016A5CBF
:1009F0007F4FDC01A60FB71F6653704004C08D9374
:100A00006F5F7F4F319680818823C9F7CB010895AE
:100A1000EF92FF920F931F938C017B0189E1F80104
:100A200087A7CB018896908B818BC8010E944904CF
:100A3000F80112AA13AA8CE190E0E80EF91E42E038
:100A4000B701C8014A960E946503F80192AB83ABD7
:100A5000B801C7014A960E94B8011F910F91FF90FB
:100A6000EF900895CF93DF93EC01FC01AEE0B2E08C
:100A7000868180838D918683319682E0A431B80788
:100A8000B9F780E18FA760910A0270910B0261159E
:100A9000710529F421E040E061E070E002C021E04E
:100AA00040E0CE010E947104188A88E2898BCE0151
:100AB0000E94600442E06CE170E0CE014A960E9420
:100AC00065039AAB8BABBE0186E390E00E94B80150
:100AD000DF91CF910895CF93DF93EC01FC01AEE05D
:100AE000B2E0868180838D918683319682E0A43145
:100AF000B807B9F7188A8CE2898BCE010E9460048E
:100B000082E18FA720E041E061E070E0CE010E9429
:100B1000710442E060E270E0CE014A960E946503F3
:100B20009AAB8BABBE018AE390E00E94B801DF91E3
:100B3000CF910895A0E0B0E0E0EAF5E00C94500613
:100B4000EC017B01D22E132FFC01AEE0B2E08681D6
:100B500080838D918683319682E0A431B807B9F7FE
:100B6000042F4D3D08F00CED188A045E098BCE0170
:100B70000E9460048AA18CA38BA18DA31AA3DBA27F
:100B80001EA204510FA3085018A619A6DE019A96BA
:100B900020E030E007C0F701E20FF31F80818D9362
:100BA0002F5F3F4F2017B8F310E0005F1F4F41E069
:100BB000B801CE014A960E94650398A789A7BE0195
:100BC000C8014A960E94B801CDB7DEB7E7E00C94A1
:100BD0006C060F931F93CF93DF93EC018B01FC0105
:100BE000AEE0B2E0868180838D918683319682E08B
:100BF000A431B807B9F7CE010E9460041AA28CA1F3
:100C0000883F18F08DA18F5F8DA38CA1885F8CA386
:100C1000BE01C8010E94B801DF91CF911F910F91D1
:100C20000895CF93DF93AC01EC012EE032E0FC019C
:100C3000D901868180838D918683319682E0A431AB
:100C4000B807B9F7FA01148A82E0858B8E8988A3E8
:100C5000F90181919F018E8B2196F2E024313F07AB
:100C6000A9F7FA017C96A4E1B2E0808182878D9198
:100C7000819382E0A831B807C1F7BA018AE290E017
:100C80000E94B801DF91CF9108952F923F924F9229
:100C90005F926F927F928F929F92AF92BF92CF920C
:100CA000DF92EF92FF920F931F93CF93DF93CDB715
:100CB000DEB7CA1BDB0B0FB6F894DEBF0FBECDBF8D
:100CC00009942A88398848885F846E847D848C845E
:100CD0009B84AA84B984C884DF80EE80FD800C8167
:100CE0001B81AA81B981CE0FD11D0FB6F894DEBF4A
:0C0CF0000FBECDBFED010895F894FFCFBA
:0C0CFC005455581000240A000018500A3B
:00000001FF
