:100000000C948D000C94AA000C94AA000C94AA00E5
:100010000C94AA000C94AA000C94AA000C94AA00B8
:100020000C94AA000C94AA000C94AA000C94AA00A8
:100030000C94AA000C94AA000C94AA000C94AA0098
:100040000C94AA000C94AA000C94AA000C94AA0088
:100050000C94AA000C94AA000C94AA000C94AA0078
:100060000C94AA000C94AA00485454502F312E30FE
:1000700020323030204F4B0D0A436F6E74656E7422
:100080002D547970653A20746578742F68746D6C9E
:100090000D0A0D0A3C68313E323030204F4B3C2F68
:1000A00068313E003C2F63656E7465723E3C687239
:1000B0003E3C62723E747578677261706869637302
:1000C0002E6F72670A003C63656E7465723E3C7009
:1000D0003E454E4332384A36302073696C69636F4F
:1000E0006E207265762069733A204200485454505D
:1000F0002F312E3020323030204F4B0D0A436F6E9F
:1001000074656E742D547970653A20746578742F17
:1001100068746D6C0D0A0D0A000011241FBECFEF2C
:10012000D4E0DEBFCDBF11E0A0E0B1E0E0EAFFE047
:1001300002C005900D92A231B107D9F713E0A2E1F8
:10014000B1E001C01D92AA34B107E1F70E94DA00C4
:100150000C94CE070C940000A5E0B0E0E2EBF0E0D8
:100160000C948D077C014CEE50E060E070E00E9442
:10017000D70546EC50E0BC01C7010E94D7056C01D1
:100180000E949F024AE050E08E010F5F1F4FB801AE
:1001900090E00E945207A801B601C7010E94EA053B
:1001A00044EA50E0BC01C7010E94D7052596E8E06B
:1001B0000C94A907A4E1B0E0E0EEF0E00C9488070D
:1001C00080E880936100109261008EE190E00E94CF
:1001D000410485E091E00E947E0382E00E94990242
:1001E0008AE090E00E944104219A299A66E774E02F
:1001F00084E10E947C0284E190E00E9441042998FD
:1002000040E56BE071E085E091E00E94CE04FF24C0
:10021000F39445E6842E32E7732E2DE3922E92E47A
:10022000E92E86E0A82EB12CAC0EBD1E6E010894FE
:10023000C11CD11C62E171E086E292E00E940703DA
:100240008C010097B9F3BC0182E191E00E94F404B3
:10025000882329F082E191E00E940507EBCFB801E5
:1002600082E191E00E941005882321F3FF2019F01C
:10027000299AFF2403C02998FF24F394809129012F
:10028000813051F4809134018830A1F6B80182E1C7
:1002900091E00E94DD06CECF863009F04AC0809101
:1002A0003601882339F680913701803519F680911F
:1002B000410181FF05C082E191E00E945F06BACF53
:1002C00084FFB8CF82E191E00E94B4050E94A305AB
:1002D000BC01009749F48091410180FFABCF82E1DE
:1002E00091E00E942606A6CF6E5E7E4F44E050E06D
:1002F00080E091E00E943907009749F048E650E01D
:1003000060E070E082E191E00E94D70507C00E94A2
:100310009F02682F82E191E00E94AC008C0182E193
:1003200091E00E942606B80182E191E00E94FC055E
:1003300081CF813109F07ECF80913601843009F080
:1003400079CF80913701803B09F074CF80913C01D7
:10035000863709F06FCF89838A827B829C82ED8207
:100360000E949F024AE050E0B50190E00E945207CF
:100370006AE070E0C6010E94470720EB34E0482F96
:10038000B60182E191E00E948E0654CF2A98962F02
:100390009F71982B9EBD0DB407FEFDCF1EBC0DB402
:1003A00007FEFDCF67FF04C01EBC0DB407FEFDCFE6
:1003B0002A9A8EB508952A986F71682B6EBD0DB478
:1003C00007FEFDCF4EBD0DB407FEFDCF2A9A08955E
:1003D000AC01FB012A988AE38EBD0DB407FEFDCF68
:1003E0009A01DF0108C01EBC0DB407FEFDCF2150ED
:1003F00030408EB58D9321153105A9F7E40FF51F17
:1004000010822A9A08959C01FB012A988AE78EBDE2
:100410000DB407FEFDCF08C080818EBD0DB407FE70
:10042000FDCF21503040319621153105A9F72A9A88
:100430000895482F282F30E02076307080913903BE
:1004400090E028173907F9F02A988FEB8EBD0DB48C
:1004500007FEFDCF83E08EBD0DB407FEFDCF2A9AC7
:100460002A988FE98EBD0DB407FEFDCF85E0359546
:1004700027958A95E1F72EBD0DB407FEFDCF2A9A88
:1004800040764093390308951F93182F0E94190254
:10049000612F80E00E94C6011F9108950F931F9362
:1004A000182F062F0E9419022A981F7110641EBD72
:1004B0000DB407FEFDCF0EBD0DB407FEFDCF2A9A89
:1004C0001F910F910895682F84ED0E944E0261E004
:1004D00082ED0E944E028EE38A95F1F78AEE0E9429
:1004E000440280FDFBCF60E082ED0E944E0289ED68
:1004F0000E94440290E008950F931F93162F072F38
:10050000682F84ED0E944E02612F86ED0E944E02FC
:10051000602F87ED0E944E021EE303C0812F8A9553
:10052000F1F78AEE0E94440280FDF8CF1F910F91EF
:1005300008958770682F85E70E944E02089582E72C
:100540000E944402089581E10E94630220E0892B09
:1005500009F021E0822F08950F931F93CF93DF932B
:10056000EC018B016FEF82E00E944E0269E183E0B3
:100570000E944E02CE018150682F86E00E944E02FA
:10058000CE018150964E692F87E00E944E022A9834
:100590008AE78EBD0DB407FEFDCF1EBC0DB407FE6D
:1005A000FDCF2A9A2A988AE78EBD0DB407FEFDCFAB
:1005B00009C0F80180818EBD0DB407FEFDCF2197E3
:1005C0000F5F1F4F2097A9F72A9A2A988FE98EBDAF
:1005D0000DB407FEFDCF88E08EBD0DB407FEFDCF44
:1005E0002A9A8CE10E94440281FF0CC02A988FEB6A
:1005F0008EBD0DB407FEFDCF88E08EBD0DB407FEA5
:10060000FDCF2A9ADF91CF911F910F910895A0E01D
:10061000B0E0EDE0F3E00C948B076C015B0189E343
:100620000E944402882319F400E010E061C0609148
:100630003A0310913B0380E00E944E02612F81E05B
:100640000E944E0260E08AE30E94C601182F60E01B
:100650008AE30E94C601382F20E0C12FD0E0C22BD0
:10066000D32BD0933B03C0933A0360E08AE30E940C
:10067000C601E82E60E08AE30E94C601F82E60E021
:100680008AE30E94C601082F10E060E08AE30E941E
:10069000C601382F20E0202B312B27FD03C000E0BE
:1006A00010E012C00E2D10E09F2D80E0082B192BBA
:1006B000C6010197045010408017910708F48C017F
:1006C000B501C8010E94E8016C2F8CE00E944E0227
:1006D0006D2F8DE00E944E022A988EE98EBD0DB4DA
:1006E00007FEFDCF80E48EBD0DB407FEFDCF2A9A34
:1006F000C801CDB7DEB7EAE00C94A707CF93DF932C
:10070000EC01229A2A9A84B1886284B924982B98A1
:100710002D9880E58CBD8DB581608DBD2A988FEFB9
:100720008EBD0DB407FEFDCF8FEF8EBD0DB407FE5D
:10073000FDCF2A9A82E390E00E94410410923B038D
:1007400010923A0360E088E00E944E0260E089E087
:100750000E944E0260E08CE00E944E0260E08DE05C
:100760000E944E026EEF8AE00E944E0269E18BE029
:100770000E944E026FEF84E00E944E0269E185E024
:100780000E944E026FEF86E00E944E026FE187E00A
:100790000E944E0260EB88E30E944E026FE388E203
:1007A0000E944E0260E389E20E944E0269EF80E3FC
:1007B0000E944E0267EF81E30E944E026DE080ECE2
:1007C0000E944E0260E081EC0E944E022A9882E86C
:1007D0008EBD0DB407FEFDCF82E38EBD0DB407FEC6
:1007E000FDCF2A9A62E186EC0E944E026CE087EC13
:1007F0000E944E0262E184EC0E944E026CED8AEC93
:100800000E944E0265E08BEC0E944E02688184EEED
:100810000E944E02698185EE0E944E026A8182EE3C
:100820000E944E026B8183EE0E944E026C8180EE2C
:100830000E944E026D8181EE0E944E0260E071E0E6
:1008400080E10E947C028FE10E9419022A988BE9C4
:100850008EBD0DB407FEFDCF80EC8EBD0DB407FE3E
:10086000FDCF2A9A2A988FE98EBD0DB407FEFDCFE1
:1008700084E08EBD0DB407FEFDCF2A9ADF91CF91A3
:10088000089528EB3BE004C0F9013197F1F7019797
:100890000097D1F708952FE088E190E00FB6F89423
:1008A000A895809360000FBE209360000895A895DE
:1008B0000895A0E0B0E0EFE5F4E00C948D076C0142
:1008C000413081F4685070407B0100E010E0685FC7
:1008D0007F4F21E130E040E050E0E20EF31E041FC4
:1008E000151F15C0423021F0EE24FF2487010FC0F0
:1008F000685070407B0100E010E0685F7F4F86E049
:1009000090E0A0E0B0E0E80EF91E0A1F1B1FF60100
:10091000EB0116C0808190E0A0E0B0E0BA2FA92FD3
:10092000982F8827218130E040E050E0822B932BE4
:10093000A42BB52BE80EF91E0A1F1B1F3296229717
:10094000C230D10538F7FB01EE7FEC0DFD1D60FFD5
:1009500015C0808190E0A0E0B0E0BA2FA92F982FB9
:10096000882708C02FEF3FEF40E050E0E222F3225B
:1009700004231523E80EF91E0A1F1B1FC801AA270E
:10098000BB270097A105B10569F797012095309520
:10099000C901CDB7DEB7E8E00C94A907CF93DF9388
:1009A000EC0140930F0120E030E0F901EA5BFC4FDD
:1009B000DB01A20FB31F8C9180832F5F3F4F243048
:1009C000310599F720E030E0F901E05CFC4FDE01F1
:1009D000A20FB31F8C9180832F5F3F4F26303105CC
:1009E00099F7DF91CF910895FC0169327105B0F05C
:1009F0008485883099F48585863081F4DF01969668
:100A0000E6E4F3E09C918081981741F411963196C9
:100A100083E0EA34F807B1F781E0089580E00895B3
:100A2000FC016A327105D0F084858830B9F485857F
:100A30008823A1F48685853489F4DF01E6E4F3E0B8
:100A40005E969C915E978081981741F4119631963D
:100A500083E0EA34F807A1F781E0089580E0089583
:100A6000FC01A0E4B3E0868180838D91868331967A
:100A700083E0A634B807B9F708950F931F938C014C
:100A8000FC01108E118E80E4848B158A868B40E0E9
:100A900064E170E0C8010E960E945904F801908F3D
:100AA000818F1F910F910895AC01FC01A6E4B3E082
:100AB000828D868F8D91828F319683E0AA34B8071C
:100AC000B9F7CA010E943D050895FC0182A184A3E3
:100AD00012A283A185A313A280910F0183A3DF013A
:100AE000999694E08C91680F711D14968C911497CF
:100AF00014966C931497222311F08C9301C01C92CE
:100B000091501197992319F0672F7727EBCF222364
:100B100049F416A217A28091100180A711A68E5F3A
:100B20008093100112AA13AA442351F082E086ABED
:100B300084E087AB85E080AF80E881AF80E601C0CC
:100B400080E586A7089580913C0390913D03892B11
:100B500019F420E030E006C020913E0330913F03BD
:100B60002E5D3F4FC9010895FC01908980E02189E5
:100B700030E0282B392B86A582958F7090E0880F66
:100B8000991F880F991F90933F0380933E03245130
:100B90003040281B390B30933D0320933C03121641
:100BA000130624F010923D0310923C0308956A5CF2
:100BB0007F4FDC01A60FB71F6653704003C08D93B3
:100BC0006F5F7F4FFA014F5F5F4F84918823B9F7C2
:100BD000CB010895FA016A5C7F4FDC01A60FB71FB5
:100BE0006653704004C08D936F5F7F4F3196808154
:100BF0008823C9F7CB010895EF92FF920F931F93BB
:100C00008C017B0189E1F80187A7CB018896908B45
:100C1000818BC8010E943D05F80112AA13AA8CE13C
:100C200090E0E80EF91E42E0B701C8014A960E9422
:100C30005904F80192AB83ABB801C7014A960E94F0
:100C4000AC021F910F91FF90EF900895CF93DF9327
:100C5000EC01FC01A0E4B3E0868180838D91868362
:100C6000319683E0A634B807B9F780E18FA7609189
:100C70003C0370913D036115710529F421E040E0CA
:100C800061E070E002C021E040E0CE010E94650515
:100C9000188A88E2898BCE010E94540542E06CE1FB
:100CA00070E0CE014A960E9459049AAB8BABBE010C
:100CB00086E390E00E94AC02DF91CF910895CF933C
:100CC000DF93EC01FC01A0E4B3E0868180838D9189
:100CD0008683319683E0A634B807B9F7188A8CE288
:100CE000898BCE010E94540582E18FA720E041E06C
:100CF00061E070E0CE010E94650542E060E270E0D4
:100D0000CE014A960E9459049AAB8BABBE018AE38E
:100D100090E00E94AC02DF91CF910895A0E0B0E096
:100D2000E4E9F6E00C948E07EC017B01D22E132F40
:100D3000FC01A0E4B3E0868180838D9186833196A7
:100D400083E0A634B807B9F7042F4D3D08F00CED49
:100D5000188A045E098BCE010E9454058AA18CA3D7
:100D60008BA18DA31AA3DBA21EA204510FA30850CE
:100D700018A619A6DE019A9620E030E007C0F70118
:100D8000E20FF31F80818D932F5F3F4F2017B8F341
:100D900010E0005F1F4F41E0B801CE014A960E946B
:100DA000590498A789A7BE01C8014A960E94AC02BF
:100DB000CDB7DEB7E7E00C94AA070F931F93CF934C
:100DC000DF93EC018B01FC01A0E4B3E0868180831A
:100DD0008D918683319683E0A634B807B9F7CE01AA
:100DE0000E9454051AA28CA1883F18F08DA18F5F34
:100DF0008DA38CA1885F8CA3BE01C8010E94AC02A8
:100E0000DF91CF911F910F910895CF93DF93AC01A4
:100E1000EC0120E433E0FC01D901868180838D91CF
:100E20008683319683E0A634B807B9F7FA01148AAD
:100E300082E0858B8E8988A3F90181919F018E8B39
:100E40002196F3E026343F07A9F7FA017C96A6E441
:100E5000B3E0808182878D91819383E0AA34B807C3
:100E6000C1F7BA018AE290E00E94AC02DF91CF9113
:100E70000895FB01DC014150504030F08D9101900C
:100E8000801919F40020B9F7881B990B0895FC010B
:100E90006150704001900110D8F7809590958E0FA9
:100EA0009F1F0895FB019F01E8944230C4F0453232
:100EB000B4F44A3029F497FB1EF4909581959F4F26
:100EC000642F77270E94BA07805D8A330CF0895D12
:100ED0008193CB010097A1F716F45DE25193108244
:100EE000C9010C947307DC01FC01672F7191772312
:100EF000E1F7329704C07C916D9370836291AE17D5
:100F0000BF07C8F308952F923F924F925F926F925E
:100F10007F928F929F92AF92BF92CF92DF92EF9289
:100F2000FF920F931F93CF93DF93CDB7DEB7CA1B0A
:100F3000DB0B0FB6F894DEBF0FBECDBF09942A8835
:100F4000398848885F846E847D848C849B84AA84DD
:100F5000B984C884DF80EE80FD800C811B81AA816A
:100F6000B981CE0FD11D0FB6F894DEBF0FBECDBF35
:100F7000ED010895AA1BBB1B51E107C0AA1FBB1FAF
:100F8000A617B70710F0A61BB70B881F991F5A9515
:100F9000A9F780959095BC01CD010895F894FFCFF5
:100FA00047455420005455581000240A000018509A
:020FB0000A0035
:00000001FF
